S01D00006C61626F7261746F72696F335F6469676974616C322E73726563C7
S11300000C943B000C9458000C9458000C94580029
S11300100C9458000C9458000C9458000C945800FC
S11300200C9458000C9458000C9458000C945800EC
S11300300C9458000C9458000C9458000C945800DC
S11300400C9458000C9458000C943F010C945800E4
S11300500C9458000C9458000C9458000C945800BC
S11300600C9458000C945800E101E801EF01F901E7
S113007003020D02170211241FBECFEFD8E0DEBF2A
S1130080CDBF12E0A0E0B1E0ECE1FBE002C00590DE
S11300900D92A631B107D9F722E0A6E1B2E001C082
S11300A01D92AF35B207E1F70E9488000C948C05CD
S11300B00C94000010923D0287B1806287B984B12C
S11300C0836084B98AB18C6F8AB988B18F7D88B90D
S11300D085B18C7F85B98BB183708BB9089585ED1B
S11300E091E00E94550280E091E00E94550289E26D
S11300F091E00E9455028CE391E00E94550288E64B
S113010091E00E94550287E991E00E94550208950A
S11301100E945A0020E040E060E081E50E94C901AD
S11301200E94350278940E946F0080913C028130D5
S1130130E1F710923C0288B18F7D88B983E60E9472
S11301402E0280E00E942E020E943002282F30E00E
S113015030931902209318021F928F938CEA91E036
S11301609F938F931F92CEE1CF9381E492E09F936C
S11301708F930E94940281E492E00E94550281E6EA
S11301800E942E0280E00E942E020E943002282F3C
S113019030E030931702209316021F928F9388EB5E
S11301A091E09F938F931F92CF938AE192E09F9364
S11301B08F930E9494028AE192E00E94550288B1D2
S11301C0806288B92FEF84E39CE021508040904006
S11301D0E1F700C000000E946F008DB79EB7409603
S11301E00FB6F8949EBF0FBE8DBF9FCF882324F413
S11301F095B1926095B903C095B19D7F95B986FF7D
S113020004C095B1916095B903C095B19E7F95B92D
S113021085FF04C09BB190689BB903C09BB19F77D5
S11302209BB984FF04C09BB190649BB903C09BB18C
S11302309F7B9BB983FF04C09BB190629BB903C0B1
S11302409BB19F7D9BB982FF04C09BB190619BB918
S113025003C09BB19F7E9BB981FF04C09BB1986092
S11302609BB903C09BB1977F9BB980FF04C08BB13E
S113027084608BB908958BB18B7F8BB908951F92DD
S11302800F920FB60F9211242F933F934F935F93C6
S11302906F937F938F939F93AF93BF93EF93FF934A
S11302A08091C6008093380290913A029130B9F55A
S11302B08A3021F58DE392E00E946E028093390228
S11302C084EC91E00E94550288B18F7D88B987E75C
S11302D00E942E02809139020E942E0280913902DE
S11302E00E94F60088B1806288B910923B02109295
S11302F03D0210923A020E946F0011C0E0913B024D
S1130300E33068F491E09E0F90933B02F0E0E35CED
S1130310FD4F8083E92FF0E0E35CFD4F1082809174
S11303203802873681F485ED91E00E94550287ED0D
S113033091E00E94550285ED91E00E94550281E012
S113034080933C0215C0883699F481E080933A0288
S113035085ED91E00E94550287ED91E00E945502DF
S113036085ED91E00E9455028CEF91E00E945502C8
S1130370FF91EF91BF91AF919F918F917F916F9179
S11303805F914F913F912F910F900FBE0F901F904F
S11303901895E82F84FF52C084B18C6284B984B16B
S11303A08F7E84B98CB580618CBDE7708E2F90E010
S11303B08730910508F04BC0FC01EC5CFF4F0C94B6
S11303C068028CB58C7F8CBD8DB581608DBD3FC0BE
S11303D08CB58C7F8CBD8DB58E7F8DBD38C08CB5B2
S11303E081608CBD8CB58D7F8CBD8DB581608DBDDC
S11303F02EC08CB581608CBD8CB58D7F8CBD8DB5C8
S11304008E7F8DBD24C08CB58E7F8CBD8CB58260F3
S11304108CBD8DB581608DBD1AC08CB58E7F8CBDB1
S11304208CB582608CBD8DB58E7F8DBD10C08CB5B2
S113043083608CBD8DB58E7F8DBD09C084B1806114
S113044084B984B1837D84B98CB58F7E8CBD8CB521
S1130450462B242B282B20642CBD08958EBD089593
S11304600DB407FEFDCF8EB508958AB182608AB9B6
S11304708AB18E7F8AB91092C000E1ECF0E08081ED
S113048088698083E2ECF0E080818660808387E67F
S113049090E09093C5008093C40008959091C000AB
S11304A095FFFCCF8093C60008950F931F93CF93BD
S11304B08C01C0E003C00E944E02CF5FF801EC0F34
S11304C0F11D80818111F7CFCF911F910F91089574
S11304D0EE0FFF1F0590F491E02D0994FC0188278D
S11304E09927E89421912032E9F3293010F02E3035
S11304F0C8F32B3241F02D3239F4689404C00E94C1
S11305008C02820F911D219120532A30C0F31EF4D6
S1130510909581959F4F08957AE0979F902D879F9E
S1130520802D910D11240895AEE0B0E0EAE9F2E0E7
S11305300C9463050D891E898F89988D26E02C8380
S11305401A83098397FF02C080E090E801979E8395
S11305508D83AE01455E5F4F698D7A8DCE01019624
S11305600E94C4024D815E8157FD0AC02F813885E7
S1130570421753070CF49A01F801E20FF31F10829B
S11305802E96E4E00C947F05ABE0B0E0EAECF2E0F8
S11305900C9455056C017B018A01FC0117821682BB
S11305A0838181FFCCC1CE0101963C01F601938188
S11305B0F70193FD859193FF81917F01882309F4CD
S11305C0BAC1853239F493FD859193FF81917F01FE
S11305D0853229F4B60190E00E94BB04E7CF912C48
S11305E0212C312CFFE1F315D8F08B3279F038F45B
S11305F0803279F08332A1F4232D20611DC08D3225
S113060061F0803369F4232D216016C0832D82604C
S1130610382EE32DE4603E2E2AC0F32DF8601DC071
S113062037FC2DC020ED280F2A3040F08E32B9F46B
S113063036FC81C1232D2064322E19C036FE06C03B
S11306408AE0989E200D1124922E11C0EAE02E9E7D
S1130650200D1124222EF32DF0623F2E08C08C367B
S113066021F4832D8068382E02C0883641F4F701C6
S113067093FD859193FF81917F018111B3CF982FD1
S11306809F7D9554933028F40C5F1F4F9FE399830B
S11306900DC0833631F0833771F0833509F059C0CA
S11306A021C0F801808189830E5F1F4F88248394C1
S11306B0912C530113C02801F2E04F0E511CF80194
S11306C0A080B18036FE03C0692D70E002C06FEFD8
S11306D07FEFC5010E94B0044C018201F32DFF7726
S11306E03F2E16C0280122E0420E511CF801A080C2
S11306F0B18036FE03C0692D70E002C06FEF7FEF5A
S1130700C5010E94A5044C01F32DF0683F2E82011F
S113071033FC1BC0822D90E088169906B0F4B60114
S113072080E290E00E94BB042A94F4CFF50137FCE8
S1130730859137FE81915F01B60190E00E94BB0470
S113074021102A9421E0821A91088114910471F7EE
S1130750E8C0843611F0893641F5F80137FE07C048
S113076060817181828193810C5F1F4F08C0608119
S11307707181072E000C880B990B0E5F1F4FF32D10
S1130780FF763F2E97FF09C09095809570956195EF
S11307907F4F8F4F9F4FF0683F2E2AE030E0A30138
S11307A00E94F704882E861845C0853731F4232D1E
S11307B02F7EB22E2AE030E025C0932D997FB92EEA
S11307C08F36C1F018F4883579F0B5C0803719F048
S11307D0883721F0B0C0E92FE061BE2EB4FE0DC011
S11307E0FB2DF460BF2E09C034FE0AC0292F2660F9
S11307F0B22E06C028E030E005C020E130E002C09F
S113080020E132E0F801B7FE07C060817181828186
S113081093810C5F1F4F06C06081718180E090E07E
S11308200E5F1F4FA3010E94F704882E8618FB2D2C
S1130830FF773F2E36FE0DC0232D2E7FA22E891466
S113084058F434FE0BC032FC09C0832D8E7EA82ED2
S113085005C0B82CA32C03C0B82C01C0B92CA4FE2D
S11308600FC0FE01E80DF11D8081803321F49A2D23
S1130870997EA92E09C0A2FE06C0B394B39404C005
S11308808A2D867809F0B394A3FC11C0A0FE06C09B
S1130890B21488F4280C922C9B180EC0B21460F485
S11308A0B60180E290E00E94BB04B394F7CFB21487
S11308B018F42B1802C0982C212CA4FE10C0B601E9
S11308C080E390E00E94BB04A2FE17C0A1FC03C019
S11308D088E790E002C088E590E0B6010CC08A2D5C
S11308E0867859F0A1FE02C08BE201C080E2A7FC29
S11308F08DE2B60190E00E94BB04891438F4B6017D
S113090080E390E00E94BB049A94F7CF8A94F301A9
S1130910E80DF11D8081B60190E00E94BB048110B6
S1130920F5CF222009F442CEB60180E290E00E9485
S1130930BB042A94F6CFF6018681978102C08FEF1B
S11309409FEF2B96E2E10C947105FC010590615038
S113095070400110D8F7809590958E0F9F1F0895D1
S1130960FC016150704001900110D8F7809590957A
S11309708E0F9F1F08950F931F93CF93DF93FB0157
S1130980238121FD03C08FEF9FEF2CC022FF16C0EF
S113099046815781248135814217530744F4A0814D
S11309A0B1819D012F5F3F4F318320838C9326813A
S11309B037812F5F3F4F3783268314C08B01EC01AF
S11309C0FB010084F185E02D0995892BE1F6D8011E
S11309D016968D919C911797019617969C938E93DA
S11309E01697CE01DF91CF911F910F910895FA01CF
S11309F0AA27283051F1203181F1E8946F936E7F5A
S1130A006E5F7F4F8F4F9F4FAF4FB1E03ED0B4E04A
S1130A103CD0670F781F891F9A1FA11D680F791F8B
S1130A208A1F911DA11D6A0F711D811D911DA11D9C
S1130A3020D009F468943F912AE0269F11243019AC
S1130A40305D3193DEF6CF010895462F4770405D47
S1130A504193B3E00FD0C9F7F6CF462F4F70405DF6
S1130A604A3318F0495D31FD4052419302D0A9F751
S1130A70EACFB4E0A6959795879577956795BA954B
S1130A80C9F700976105710508959B01AC010A2E11
S1130A9006945795479537952795BA95C9F7620FE8
S1130AA0731F841F951FA01D08952F923F924F928C
S1130AB05F926F927F928F929F92AF92BF92CF92EA
S1130AC0DF92EF92FF920F931F93CF93DF93CDB7F3
S1130AD0DEB7CA1BDB0B0FB6F894DEBF0FBECDBF6B
S1130AE009942A88398848885F846E847D848C843C
S1130AF09B84AA84B984C884DF80EE80FD800C8145
S1130B001B81AA81B981CE0FD11D0FB6F894DEBF27
S10F0B100FBECDBFED010895F894FFCF97
S1130B1C4269656E76656E69646F20616C206D65E3
S1130B2C6EFA206465206C61206869706572746566
S1130B3C726D696E616C2E0A00BF5175E920646593
S1130B4C7365612068616365723F0A00506172616C
S1130B5C206C656572206C6F7320706F74656E63A6
S1130B6C696F6D6574726F732070726573696F6EE3
S1130B7C65202767272E0A005061726120656E7606
S1130B8C69617220756E2076616C6F7220646520C9
S1130B9C302061203235352070726573696F6E6553
S1130BAC202768272E0A00204573636F6A6120751D
S1130BBC6E61206F706369F36E3A20000A20503125
S1130BCC3A253375200A20000A2050323A25337511
S1130BDC200A20000A4E756D65726F207265636978
S1130BEC6269646F0D0A002D2D2D2D2D2D2D2D2DAB
S1130BFC2D2D2D2D2D2D2D2D2D2D2D2D2D2D2D2D15
S1130C0C2D2D2D2D2D2D2D2D2D2D2D00496E677255
S1130C1C65736520756E2076616C6F7220302D3291
S1090C2C35353A200000FA
S9030000FC
