:100000000C943B000C944D000C944D000C944D004E
:100010000C944D000C944D000C944D000C944D002C
:100020000C944D000C944D000C944D000C944D001C
:100030000C944D000C944D000C944D000C944D000C
:100040000C944D000C94B4000C944D000C944D0095
:100050000C944D000C9466000C944D000C944D00D3
:100060000C944D000C944D0007010E0115011F0169
:10007000290133013D0111241FBECFEFD8E0DEBFBF
:10008000CDBF21E0A0E0B1E001C01D92A530B207D4
:10009000E1F70E94A2000C945A010C940000F8941D
:1000A000ACE7B0E01C92109202018C9180668C93B8
:1000B000EAE7F0E0108280818F6880838C91836012
:1000C0008C93808180648083789408951F920F922E
:1000D0000FB60F9211248F93EF93FF93809102013B
:1000E000882319F0813079F01AC0ECE7F0E08081C4
:1000F000887F83608083809179008093010181E013
:10010000809302010CC0ECE7F0E08081887F84607E
:100110008083809179008093000110920201EAE7C8
:10012000F0E0808180648083FF91EF918F910F9048
:100130000FBE0F901F9018958AB18FEF8AB98BB1BF
:100140001BB80895F8940E949C0020E040E060E015
:1001500080E40E94EF000E944F008CB580688CBD47
:100160007894FFCF8BB908951F920F920FB60F921C
:1001700011242F933F934F935F936F937F938F93AC
:100180009F93AF93BF93EF93FF938EB5909103012D
:10019000913029F40E94B200109203010FC08336FF
:1001A00019F4909101019EBD813619F490910001DE
:1001B0009EBD873719F481E080930301FF91EF9191
:1001C000BF91AF919F918F917F916F915F914F916F
:1001D0003F912F910F900FBE0F901F901895E82F11
:1001E00084FF52C084B18C6284B984B18F7E84B99B
:1001F0008CB580618CBDE7708E2F90E087309105C3
:1002000008F04BC0FC01EC5CFF4F0C9454018CB522
:100210008C7F8CBD8DB581608DBD3FC08CB58C7FD2
:100220008CBD8DB58E7F8DBD38C08CB581608CBD89
:100230008CB58D7F8CBD8DB581608DBD2EC08CB58C
:1002400081608CBD8CB58D7F8CBD8DB58E7F8DBD55
:1002500024C08CB58E7F8CBD8CB582608CBD8DB575
:1002600081608DBD1AC08CB58E7F8CBD8CB58260CF
:100270008CBD8DB58E7F8DBD10C08CB583608CBD5F
:100280008DB58E7F8DBD09C084B1806184B984B184
:10029000837D84B98CB58F7E8CBD8CB5462B242B89
:1002A000282B20642CBD0895EE0FFF1F0590F491BC
:0802B000E02D0994F894FFCF42
:00000001FF
